{
  "_format": "hh-sol-artifact-1",
  "contractName": "CoopLedger",
  "sourceName": "contracts/CoopLedger.sol",
  "abi": [
    {
      "inputs": [],
      "stateMutability": "nonpayable",
      "type": "constructor"
    },
    {
      "inputs": [
        {
          "internalType": "address",
          "name": "owner",
          "type": "address"
        }
      ],
      "name": "OwnableInvalidOwner",
      "type": "error"
    },
    {
      "inputs": [
        {
          "internalType": "address",
          "name": "account",
          "type": "address"
        }
      ],
      "name": "OwnableUnauthorizedAccount",
      "type": "error"
    },
    {
      "anonymous": false,
      "inputs": [
        {
          "indexed": true,
          "internalType": "address",
          "name": "previousOwner",
          "type": "address"
        },
        {
          "indexed": true,
          "internalType": "address",
          "name": "newOwner",
          "type": "address"
        }
      ],
      "name": "OwnershipTransferred",
      "type": "event"
    },
    {
      "anonymous": false,
      "inputs": [
        {
          "indexed": true,
          "internalType": "uint256",
          "name": "id",
          "type": "uint256"
        },
        {
          "indexed": false,
          "internalType": "string",
          "name": "txType",
          "type": "string"
        },
        {
          "indexed": false,
          "internalType": "uint256",
          "name": "amount",
          "type": "uint256"
        },
        {
          "indexed": true,
          "internalType": "address",
          "name": "member",
          "type": "address"
        },
        {
          "indexed": false,
          "internalType": "uint256",
          "name": "date",
          "type": "uint256"
        },
        {
          "indexed": false,
          "internalType": "string",
          "name": "description",
          "type": "string"
        }
      ],
      "name": "TransactionRecorded",
      "type": "event"
    },
    {
      "inputs": [
        {
          "internalType": "uint256",
          "name": "id",
          "type": "uint256"
        }
      ],
      "name": "getTransaction",
      "outputs": [
        {
          "internalType": "string",
          "name": "txType",
          "type": "string"
        },
        {
          "internalType": "uint256",
          "name": "amount",
          "type": "uint256"
        },
        {
          "internalType": "address",
          "name": "member",
          "type": "address"
        },
        {
          "internalType": "uint256",
          "name": "date",
          "type": "uint256"
        },
        {
          "internalType": "string",
          "name": "description",
          "type": "string"
        }
      ],
      "stateMutability": "view",
      "type": "function"
    },
    {
      "inputs": [],
      "name": "owner",
      "outputs": [
        {
          "internalType": "address",
          "name": "",
          "type": "address"
        }
      ],
      "stateMutability": "view",
      "type": "function"
    },
    {
      "inputs": [
        {
          "internalType": "uint256",
          "name": "id",
          "type": "uint256"
        },
        {
          "internalType": "string",
          "name": "txType",
          "type": "string"
        },
        {
          "internalType": "uint256",
          "name": "amount",
          "type": "uint256"
        },
        {
          "internalType": "address",
          "name": "member",
          "type": "address"
        },
        {
          "internalType": "uint256",
          "name": "date",
          "type": "uint256"
        },
        {
          "internalType": "string",
          "name": "description",
          "type": "string"
        }
      ],
      "name": "recordTransaction",
      "outputs": [],
      "stateMutability": "nonpayable",
      "type": "function"
    },
    {
      "inputs": [],
      "name": "renounceOwnership",
      "outputs": [],
      "stateMutability": "nonpayable",
      "type": "function"
    },
    {
      "inputs": [
        {
          "internalType": "uint256",
          "name": "",
          "type": "uint256"
        }
      ],
      "name": "transactions",
      "outputs": [
        {
          "internalType": "string",
          "name": "txType",
          "type": "string"
        },
        {
          "internalType": "uint256",
          "name": "amount",
          "type": "uint256"
        },
        {
          "internalType": "address",
          "name": "member",
          "type": "address"
        },
        {
          "internalType": "uint256",
          "name": "date",
          "type": "uint256"
        },
        {
          "internalType": "string",
          "name": "description",
          "type": "string"
        }
      ],
      "stateMutability": "view",
      "type": "function"
    },
    {
      "inputs": [
        {
          "internalType": "address",
          "name": "newOwner",
          "type": "address"
        }
      ],
      "name": "transferOwnership",
      "outputs": [],
      "stateMutability": "nonpayable",
      "type": "function"
    }
  ],
  "bytecode": "0x608060405234801561001057600080fd5b5033600073ffffffffffffffffffffffffffffffffffffffff168173ffffffffffffffffffffffffffffffffffffffff16036100845760006040517f1e4fbdf700000000000000000000000000000000000000000000000000000000815260040161007b919061019e565b60405180910390fd5b6100938161009960201b60201c565b506101b9565b60008060009054906101000a900473ffffffffffffffffffffffffffffffffffffffff169050816000806101000a81548173ffffffffffffffffffffffffffffffffffffffff021916908373ffffffffffffffffffffffffffffffffffffffff1602179055508173ffffffffffffffffffffffffffffffffffffffff168173ffffffffffffffffffffffffffffffffffffffff167f8be0079c531659141344cd1fd0a4f28419497f9722a3daafe3b4186f6b6457e060405160405180910390a35050565b600073ffffffffffffffffffffffffffffffffffffffff82169050919050565b60006101888261015d565b9050919050565b6101988161017d565b82525050565b60006020820190506101b3600083018461018f565b92915050565b610f5d806101c86000396000f3fe608060405234801561001057600080fd5b50600436106100625760003560e01c806308d538181461006757806333ea3dc814610083578063715018a6146100b75780638da5cb5b146100c15780639ace38c2146100df578063f2fde38b14610113575b600080fd5b610081600480360381019061007c91906109be565b61012f565b005b61009d60048036038101906100989190610a83565b61026e565b6040516100ae959493929190610b4d565b60405180910390f35b6100bf610454565b005b6100c9610468565b6040516100d69190610bae565b60405180910390f35b6100f960048036038101906100f49190610a83565b610491565b60405161010a959493929190610b4d565b60405180910390f35b61012d60048036038101906101289190610bc9565b6105f7565b005b61013761067d565b6040518060a001604052808681526020018581526020018473ffffffffffffffffffffffffffffffffffffffff1681526020018381526020018281525060016000888152602001908152602001600020600082015181600001908161019c9190610e02565b506020820151816001015560408201518160020160006101000a81548173ffffffffffffffffffffffffffffffffffffffff021916908373ffffffffffffffffffffffffffffffffffffffff16021790555060608201518160030155608082015181600401908161020d9190610e02565b509050508273ffffffffffffffffffffffffffffffffffffffff16867f1c61be6c25d5bfb14ec8c5960dfe25b7576080662885f1802bb9b2ba49d8a5668787868660405161025e9493929190610ed4565b60405180910390a3505050505050565b6060600080600060606000600160008881526020019081526020016000206040518060a00160405290816000820180546102a790610c25565b80601f01602080910402602001604051908101604052809291908181526020018280546102d390610c25565b80156103205780601f106102f557610100808354040283529160200191610320565b820191906000526020600020905b81548152906001019060200180831161030357829003601f168201915b50505050508152602001600182015481526020016002820160009054906101000a900473ffffffffffffffffffffffffffffffffffffffff1673ffffffffffffffffffffffffffffffffffffffff1673ffffffffffffffffffffffffffffffffffffffff168152602001600382015481526020016004820180546103a390610c25565b80601f01602080910402602001604051908101604052809291908181526020018280546103cf90610c25565b801561041c5780601f106103f15761010080835404028352916020019161041c565b820191906000526020600020905b8154815290600101906020018083116103ff57829003601f168201915b505050505081525050905080600001518160200151826040015183606001518460800151955095509550955095505091939590929450565b61045c61067d565b6104666000610704565b565b60008060009054906101000a900473ffffffffffffffffffffffffffffffffffffffff16905090565b60016020528060005260406000206000915090508060000180546104b490610c25565b80601f01602080910402602001604051908101604052809291908181526020018280546104e090610c25565b801561052d5780601f106105025761010080835404028352916020019161052d565b820191906000526020600020905b81548152906001019060200180831161051057829003601f168201915b5050505050908060010154908060020160009054906101000a900473ffffffffffffffffffffffffffffffffffffffff169080600301549080600401805461057490610c25565b80601f01602080910402602001604051908101604052809291908181526020018280546105a090610c25565b80156105ed5780601f106105c2576101008083540402835291602001916105ed565b820191906000526020600020905b8154815290600101906020018083116105d057829003601f168201915b5050505050905085565b6105ff61067d565b600073ffffffffffffffffffffffffffffffffffffffff168173ffffffffffffffffffffffffffffffffffffffff16036106715760006040517f1e4fbdf70000000000000000000000000000000000000000000000000000000081526004016106689190610bae565b60405180910390fd5b61067a81610704565b50565b6106856107c8565b73ffffffffffffffffffffffffffffffffffffffff166106a3610468565b73ffffffffffffffffffffffffffffffffffffffff1614610702576106c66107c8565b6040517f118cdaa70000000000000000000000000000000000000000000000000000000081526004016106f99190610bae565b60405180910390fd5b565b60008060009054906101000a900473ffffffffffffffffffffffffffffffffffffffff169050816000806101000a81548173ffffffffffffffffffffffffffffffffffffffff021916908373ffffffffffffffffffffffffffffffffffffffff1602179055508173ffffffffffffffffffffffffffffffffffffffff168173ffffffffffffffffffffffffffffffffffffffff167f8be0079c531659141344cd1fd0a4f28419497f9722a3daafe3b4186f6b6457e060405160405180910390a35050565b600033905090565b6000604051905090565b600080fd5b600080fd5b6000819050919050565b6107f7816107e4565b811461080257600080fd5b50565b600081359050610814816107ee565b92915050565b600080fd5b600080fd5b6000601f19601f8301169050919050565b7f4e487b7100000000000000000000000000000000000000000000000000000000600052604160045260246000fd5b61086d82610824565b810181811067ffffffffffffffff8211171561088c5761088b610835565b5b80604052505050565b600061089f6107d0565b90506108ab8282610864565b919050565b600067ffffffffffffffff8211156108cb576108ca610835565b5b6108d482610824565b9050602081019050919050565b82818337600083830152505050565b60006109036108fe846108b0565b610895565b90508281526020810184848401111561091f5761091e61081f565b5b61092a8482856108e1565b509392505050565b600082601f8301126109475761094661081a565b5b81356109578482602086016108f0565b91505092915050565b600073ffffffffffffffffffffffffffffffffffffffff82169050919050565b600061098b82610960565b9050919050565b61099b81610980565b81146109a657600080fd5b50565b6000813590506109b881610992565b92915050565b60008060008060008060c087890312156109db576109da6107da565b5b60006109e989828a01610805565b965050602087013567ffffffffffffffff811115610a0a57610a096107df565b5b610a1689828a01610932565b9550506040610a2789828a01610805565b9450506060610a3889828a016109a9565b9350506080610a4989828a01610805565b92505060a087013567ffffffffffffffff811115610a6a57610a696107df565b5b610a7689828a01610932565b9150509295509295509295565b600060208284031215610a9957610a986107da565b5b6000610aa784828501610805565b91505092915050565b600081519050919050565b600082825260208201905092915050565b60005b83811015610aea578082015181840152602081019050610acf565b60008484015250505050565b6000610b0182610ab0565b610b0b8185610abb565b9350610b1b818560208601610acc565b610b2481610824565b840191505092915050565b610b38816107e4565b82525050565b610b4781610980565b82525050565b600060a0820190508181036000830152610b678188610af6565b9050610b766020830187610b2f565b610b836040830186610b3e565b610b906060830185610b2f565b8181036080830152610ba28184610af6565b90509695505050505050565b6000602082019050610bc36000830184610b3e565b92915050565b600060208284031215610bdf57610bde6107da565b5b6000610bed848285016109a9565b91505092915050565b7f4e487b7100000000000000000000000000000000000000000000000000000000600052602260045260246000fd5b60006002820490506001821680610c3d57607f821691505b602082108103610c5057610c4f610bf6565b5b50919050565b60008190508160005260206000209050919050565b60006020601f8301049050919050565b600082821b905092915050565b600060088302610cb87fffffffffffffffffffffffffffffffffffffffffffffffffffffffffffffffff82610c7b565b610cc28683610c7b565b95508019841693508086168417925050509392505050565b6000819050919050565b6000610cff610cfa610cf5846107e4565b610cda565b6107e4565b9050919050565b6000819050919050565b610d1983610ce4565b610d2d610d2582610d06565b848454610c88565b825550505050565b600090565b610d42610d35565b610d4d818484610d10565b505050565b5b81811015610d7157610d66600082610d3a565b600181019050610d53565b5050565b601f821115610db657610d8781610c56565b610d9084610c6b565b81016020851015610d9f578190505b610db3610dab85610c6b565b830182610d52565b50505b505050565b600082821c905092915050565b6000610dd960001984600802610dbb565b1980831691505092915050565b6000610df28383610dc8565b9150826002028217905092915050565b610e0b82610ab0565b67ffffffffffffffff811115610e2457610e23610835565b5b610e2e8254610c25565b610e39828285610d75565b600060209050601f831160018114610e6c5760008415610e5a578287015190505b610e648582610de6565b865550610ecc565b601f198416610e7a86610c56565b60005b82811015610ea257848901518255600182019150602085019450602081019050610e7d565b86831015610ebf5784890151610ebb601f891682610dc8565b8355505b6001600288020188555050505b505050505050565b60006080820190508181036000830152610eee8187610af6565b9050610efd6020830186610b2f565b610f0a6040830185610b2f565b8181036060830152610f1c8184610af6565b90509594505050505056fea2646970667358221220568f4cedca9c4fb48c1bbb44d7ce8e5ff61377ef8ea62d132d380ed53af1f42d64736f6c63430008140033",
  "linkReferences": {},
  "deployedLinkReferences": {}
}