{
  "_format": "hh-sol-artifact-1",
  "contractName": "VoteGovernance",
  "sourceName": "contracts/VoteGovernance.sol",
  "abi": [
    {
      "inputs": [],
      "stateMutability": "nonpayable",
      "type": "constructor"
    },
    {
      "inputs": [
        {
          "internalType": "address",
          "name": "owner",
          "type": "address"
        }
      ],
      "name": "OwnableInvalidOwner",
      "type": "error"
    },
    {
      "inputs": [
        {
          "internalType": "address",
          "name": "account",
          "type": "address"
        }
      ],
      "name": "OwnableUnauthorizedAccount",
      "type": "error"
    },
    {
      "anonymous": false,
      "inputs": [
        {
          "indexed": true,
          "internalType": "address",
          "name": "previousOwner",
          "type": "address"
        },
        {
          "indexed": true,
          "internalType": "address",
          "name": "newOwner",
          "type": "address"
        }
      ],
      "name": "OwnershipTransferred",
      "type": "event"
    },
    {
      "anonymous": false,
      "inputs": [
        {
          "indexed": true,
          "internalType": "uint256",
          "name": "voteId",
          "type": "uint256"
        },
        {
          "indexed": true,
          "internalType": "address",
          "name": "voter",
          "type": "address"
        },
        {
          "indexed": false,
          "internalType": "uint8",
          "name": "choice",
          "type": "uint8"
        }
      ],
      "name": "VoteCast",
      "type": "event"
    },
    {
      "anonymous": false,
      "inputs": [
        {
          "indexed": true,
          "internalType": "uint256",
          "name": "voteId",
          "type": "uint256"
        },
        {
          "indexed": false,
          "internalType": "string",
          "name": "title",
          "type": "string"
        },
        {
          "indexed": false,
          "internalType": "uint256",
          "name": "closingDate",
          "type": "uint256"
        }
      ],
      "name": "VoteCreated",
      "type": "event"
    },
    {
      "anonymous": false,
      "inputs": [
        {
          "indexed": true,
          "internalType": "uint256",
          "name": "voteId",
          "type": "uint256"
        },
        {
          "indexed": false,
          "internalType": "bool",
          "name": "passed",
          "type": "bool"
        }
      ],
      "name": "VoteFinalized",
      "type": "event"
    },
    {
      "inputs": [
        {
          "internalType": "uint256",
          "name": "voteId",
          "type": "uint256"
        },
        {
          "internalType": "uint8",
          "name": "choice",
          "type": "uint8"
        }
      ],
      "name": "castVote",
      "outputs": [],
      "stateMutability": "nonpayable",
      "type": "function"
    },
    {
      "inputs": [
        {
          "internalType": "string",
          "name": "title",
          "type": "string"
        },
        {
          "internalType": "string",
          "name": "description",
          "type": "string"
        },
        {
          "internalType": "uint256",
          "name": "threshold",
          "type": "uint256"
        },
        {
          "internalType": "uint256",
          "name": "closingDate",
          "type": "uint256"
        }
      ],
      "name": "createVote",
      "outputs": [],
      "stateMutability": "nonpayable",
      "type": "function"
    },
    {
      "inputs": [
        {
          "internalType": "uint256",
          "name": "voteId",
          "type": "uint256"
        }
      ],
      "name": "finalizeVote",
      "outputs": [],
      "stateMutability": "nonpayable",
      "type": "function"
    },
    {
      "inputs": [
        {
          "internalType": "uint256",
          "name": "voteId",
          "type": "uint256"
        }
      ],
      "name": "getResults",
      "outputs": [
        {
          "internalType": "uint256",
          "name": "yesVotes",
          "type": "uint256"
        },
        {
          "internalType": "uint256",
          "name": "noVotes",
          "type": "uint256"
        }
      ],
      "stateMutability": "view",
      "type": "function"
    },
    {
      "inputs": [
        {
          "internalType": "uint256",
          "name": "",
          "type": "uint256"
        },
        {
          "internalType": "address",
          "name": "",
          "type": "address"
        }
      ],
      "name": "hasVoted",
      "outputs": [
        {
          "internalType": "uint8",
          "name": "",
          "type": "uint8"
        }
      ],
      "stateMutability": "view",
      "type": "function"
    },
    {
      "inputs": [],
      "name": "nextVoteId",
      "outputs": [
        {
          "internalType": "uint256",
          "name": "",
          "type": "uint256"
        }
      ],
      "stateMutability": "view",
      "type": "function"
    },
    {
      "inputs": [],
      "name": "owner",
      "outputs": [
        {
          "internalType": "address",
          "name": "",
          "type": "address"
        }
      ],
      "stateMutability": "view",
      "type": "function"
    },
    {
      "inputs": [],
      "name": "renounceOwnership",
      "outputs": [],
      "stateMutability": "nonpayable",
      "type": "function"
    },
    {
      "inputs": [
        {
          "internalType": "address",
          "name": "newOwner",
          "type": "address"
        }
      ],
      "name": "transferOwnership",
      "outputs": [],
      "stateMutability": "nonpayable",
      "type": "function"
    },
    {
      "inputs": [
        {
          "internalType": "uint256",
          "name": "",
          "type": "uint256"
        },
        {
          "internalType": "uint8",
          "name": "",
          "type": "uint8"
        }
      ],
      "name": "voteCounts",
      "outputs": [
        {
          "internalType": "uint256",
          "name": "",
          "type": "uint256"
        }
      ],
      "stateMutability": "view",
      "type": "function"
    },
    {
      "inputs": [
        {
          "internalType": "uint256",
          "name": "",
          "type": "uint256"
        }
      ],
      "name": "votes",
      "outputs": [
        {
          "internalType": "string",
          "name": "title",
          "type": "string"
        },
        {
          "internalType": "string",
          "name": "description",
          "type": "string"
        },
        {
          "internalType": "uint256",
          "name": "threshold",
          "type": "uint256"
        },
        {
          "internalType": "uint256",
          "name": "closingDate",
          "type": "uint256"
        },
        {
          "internalType": "bool",
          "name": "status",
          "type": "bool"
        }
      ],
      "stateMutability": "view",
      "type": "function"
    }
  ],
  "bytecode": "0x60806040523480156200001157600080fd5b5033600073ffffffffffffffffffffffffffffffffffffffff168173ffffffffffffffffffffffffffffffffffffffff1603620000885760006040517f1e4fbdf70000000000000000000000000000000000000000000000000000000081526004016200007f9190620001a9565b60405180910390fd5b6200009981620000a060201b60201c565b50620001c6565b60008060009054906101000a900473ffffffffffffffffffffffffffffffffffffffff169050816000806101000a81548173ffffffffffffffffffffffffffffffffffffffff021916908373ffffffffffffffffffffffffffffffffffffffff1602179055508173ffffffffffffffffffffffffffffffffffffffff168173ffffffffffffffffffffffffffffffffffffffff167f8be0079c531659141344cd1fd0a4f28419497f9722a3daafe3b4186f6b6457e060405160405180910390a35050565b600073ffffffffffffffffffffffffffffffffffffffff82169050919050565b6000620001918262000164565b9050919050565b620001a38162000184565b82525050565b6000602082019050620001c0600083018462000198565b92915050565b61171180620001d66000396000f3fe608060405234801561001057600080fd5b50600436106100a95760003560e01c80638da5cb5b116100715780638da5cb5b14610169578063c1fa3b2e14610187578063c83a09c0146101a3578063e207d04d146101d3578063f2fde38b146101f1578063f9d793d11461020d576100a9565b806343859632146100ae57806356781388146100de5780635df81330146100fa578063715018a61461012e57806381a60c0d14610138575b600080fd5b6100c860048036038101906100c39190610c19565b610229565b6040516100d59190610c75565b60405180910390f35b6100f860048036038101906100f39190610cbc565b610258565b005b610114600480360381019061010f9190610cfc565b610500565b604051610125959493929190610de3565b60405180910390f35b610136610653565b005b610152600480360381019061014d9190610cfc565b610667565b604051610160929190610e44565b60405180910390f35b6101716106c5565b60405161017e9190610e7c565b60405180910390f35b6101a1600480360381019061019c9190610cfc565b6106ee565b005b6101bd60048036038101906101b89190610cbc565b610869565b6040516101ca9190610e97565b60405180910390f35b6101db61088e565b6040516101e89190610e97565b60405180910390f35b61020b60048036038101906102069190610eb2565b610894565b005b61022760048036038101906102229190611014565b61091a565b005b60026020528160005260406000206020528060005260406000206000915091509054906101000a900460ff1681565b600115156001600084815260200190815260200160002060040160009054906101000a900460ff161515146102c2576040517f08c379a00000000000000000000000000000000000000000000000000000000081526004016102b9906110ff565b60405180910390fd5b600160008381526020019081526020016000206003015442111561031b576040517f08c379a00000000000000000000000000000000000000000000000000000000081526004016103129061116b565b60405180910390fd5b60006002600084815260200190815260200160002060003373ffffffffffffffffffffffffffffffffffffffff1673ffffffffffffffffffffffffffffffffffffffff16815260200190815260200160002060009054906101000a900460ff1660ff16146103be576040517f08c379a00000000000000000000000000000000000000000000000000000000081526004016103b5906111d7565b60405180910390fd5b60008160ff1611610404576040517f08c379a00000000000000000000000000000000000000000000000000000000081526004016103fb90611243565b60405180910390fd5b806002600084815260200190815260200160002060003373ffffffffffffffffffffffffffffffffffffffff1673ffffffffffffffffffffffffffffffffffffffff16815260200190815260200160002060006101000a81548160ff021916908360ff1602179055506003600083815260200190815260200160002060008260ff1660ff16815260200190815260200160002060008154809291906104a890611292565b91905055503373ffffffffffffffffffffffffffffffffffffffff16827feba4866100b822f0f391e610e7edfab790b9e8766c0012733c26b2f1858e8dd7836040516104f49190610c75565b60405180910390a35050565b600160205280600052604060002060009150905080600001805461052390611309565b80601f016020809104026020016040519081016040528092919081815260200182805461054f90611309565b801561059c5780601f106105715761010080835404028352916020019161059c565b820191906000526020600020905b81548152906001019060200180831161057f57829003601f168201915b5050505050908060010180546105b190611309565b80601f01602080910402602001604051908101604052809291908181526020018280546105dd90611309565b801561062a5780601f106105ff5761010080835404028352916020019161062a565b820191906000526020600020905b81548152906001019060200180831161060d57829003601f168201915b5050505050908060020154908060030154908060040160009054906101000a900460ff16905085565b61065b610a1e565b6106656000610aa5565b565b600080600360008481526020019081526020016000206000600160ff16815260200190815260200160002054600360008581526020019081526020016000206000600260ff1681526020019081526020016000205491509150915091565b60008060009054906101000a900473ffffffffffffffffffffffffffffffffffffffff16905090565b6106f6610a1e565b600115156001600083815260200190815260200160002060040160009054906101000a900460ff16151514610760576040517f08c379a000000000000000000000000000000000000000000000000000000000815260040161075790611386565b60405180910390fd5b600160008281526020019081526020016000206003015442116107b8576040517f08c379a00000000000000000000000000000000000000000000000000000000081526004016107af906113f2565b60405180910390fd5b60006001600083815260200190815260200160002060040160006101000a81548160ff02191690831515021790555060006001600083815260200190815260200160002060020154600360008481526020019081526020016000206000600160ff1681526020019081526020016000205410159050817fa12dd7d44a6ee7489fcbbfaf9d2b201c238ed243077e92e8e8d3afcb099af54b8260405161085d9190611412565b60405180910390a25050565b6003602052816000526040600020602052806000526040600020600091509150505481565b60045481565b61089c610a1e565b600073ffffffffffffffffffffffffffffffffffffffff168173ffffffffffffffffffffffffffffffffffffffff160361090e5760006040517f1e4fbdf70000000000000000000000000000000000000000000000000000000081526004016109059190610e7c565b60405180910390fd5b61091781610aa5565b50565b610922610a1e565b60006004600081548092919061093790611292565b9190505590506040518060a001604052808681526020018581526020018481526020018381526020016001151581525060016000838152602001908152602001600020600082015181600001908161098f91906115d9565b5060208201518160010190816109a591906115d9565b50604082015181600201556060820151816003015560808201518160040160006101000a81548160ff021916908315150217905550905050807f524ae7610c7dd0c1b94d8155ea00bc06c2e5e7069c118c88441de4f2970803e68684604051610a0f9291906116ab565b60405180910390a25050505050565b610a26610b69565b73ffffffffffffffffffffffffffffffffffffffff16610a446106c5565b73ffffffffffffffffffffffffffffffffffffffff1614610aa357610a67610b69565b6040517f118cdaa7000000000000000000000000000000000000000000000000000000008152600401610a9a9190610e7c565b60405180910390fd5b565b60008060009054906101000a900473ffffffffffffffffffffffffffffffffffffffff169050816000806101000a81548173ffffffffffffffffffffffffffffffffffffffff021916908373ffffffffffffffffffffffffffffffffffffffff1602179055508173ffffffffffffffffffffffffffffffffffffffff168173ffffffffffffffffffffffffffffffffffffffff167f8be0079c531659141344cd1fd0a4f28419497f9722a3daafe3b4186f6b6457e060405160405180910390a35050565b600033905090565b6000604051905090565b600080fd5b600080fd5b6000819050919050565b610b9881610b85565b8114610ba357600080fd5b50565b600081359050610bb581610b8f565b92915050565b600073ffffffffffffffffffffffffffffffffffffffff82169050919050565b6000610be682610bbb565b9050919050565b610bf681610bdb565b8114610c0157600080fd5b50565b600081359050610c1381610bed565b92915050565b60008060408385031215610c3057610c2f610b7b565b5b6000610c3e85828601610ba6565b9250506020610c4f85828601610c04565b9150509250929050565b600060ff82169050919050565b610c6f81610c59565b82525050565b6000602082019050610c8a6000830184610c66565b92915050565b610c9981610c59565b8114610ca457600080fd5b50565b600081359050610cb681610c90565b92915050565b60008060408385031215610cd357610cd2610b7b565b5b6000610ce185828601610ba6565b9250506020610cf285828601610ca7565b9150509250929050565b600060208284031215610d1257610d11610b7b565b5b6000610d2084828501610ba6565b91505092915050565b600081519050919050565b600082825260208201905092915050565b60005b83811015610d63578082015181840152602081019050610d48565b60008484015250505050565b6000601f19601f8301169050919050565b6000610d8b82610d29565b610d958185610d34565b9350610da5818560208601610d45565b610dae81610d6f565b840191505092915050565b610dc281610b85565b82525050565b60008115159050919050565b610ddd81610dc8565b82525050565b600060a0820190508181036000830152610dfd8188610d80565b90508181036020830152610e118187610d80565b9050610e206040830186610db9565b610e2d6060830185610db9565b610e3a6080830184610dd4565b9695505050505050565b6000604082019050610e596000830185610db9565b610e666020830184610db9565b9392505050565b610e7681610bdb565b82525050565b6000602082019050610e916000830184610e6d565b92915050565b6000602082019050610eac6000830184610db9565b92915050565b600060208284031215610ec857610ec7610b7b565b5b6000610ed684828501610c04565b91505092915050565b600080fd5b600080fd5b7f4e487b7100000000000000000000000000000000000000000000000000000000600052604160045260246000fd5b610f2182610d6f565b810181811067ffffffffffffffff82111715610f4057610f3f610ee9565b5b80604052505050565b6000610f53610b71565b9050610f5f8282610f18565b919050565b600067ffffffffffffffff821115610f7f57610f7e610ee9565b5b610f8882610d6f565b9050602081019050919050565b82818337600083830152505050565b6000610fb7610fb284610f64565b610f49565b905082815260208101848484011115610fd357610fd2610ee4565b5b610fde848285610f95565b509392505050565b600082601f830112610ffb57610ffa610edf565b5b813561100b848260208601610fa4565b91505092915050565b6000806000806080858703121561102e5761102d610b7b565b5b600085013567ffffffffffffffff81111561104c5761104b610b80565b5b61105887828801610fe6565b945050602085013567ffffffffffffffff81111561107957611078610b80565b5b61108587828801610fe6565b935050604061109687828801610ba6565b92505060606110a787828801610ba6565b91505092959194509250565b7f566f7465206973206e6f74206163746976650000000000000000000000000000600082015250565b60006110e9601283610d34565b91506110f4826110b3565b602082019050919050565b60006020820190508181036000830152611118816110dc565b9050919050565b7f566f746520697320636c6f736564000000000000000000000000000000000000600082015250565b6000611155600e83610d34565b91506111608261111f565b602082019050919050565b6000602082019050818103600083015261118481611148565b9050919050565b7f416c726561647920766f74656400000000000000000000000000000000000000600082015250565b60006111c1600d83610d34565b91506111cc8261118b565b602082019050919050565b600060208201905081810360008301526111f0816111b4565b9050919050565b7f496e76616c69642063686f6963652c206d757374206265203e20300000000000600082015250565b600061122d601b83610d34565b9150611238826111f7565b602082019050919050565b6000602082019050818103600083015261125c81611220565b9050919050565b7f4e487b7100000000000000000000000000000000000000000000000000000000600052601160045260246000fd5b600061129d82610b85565b91507fffffffffffffffffffffffffffffffffffffffffffffffffffffffffffffffff82036112cf576112ce611263565b5b600182019050919050565b7f4e487b7100000000000000000000000000000000000000000000000000000000600052602260045260246000fd5b6000600282049050600182168061132157607f821691505b602082108103611334576113336112da565b5b50919050565b7f416c72656164792066696e616c697a6564000000000000000000000000000000600082015250565b6000611370601183610d34565b915061137b8261133a565b602082019050919050565b6000602082019050818103600083015261139f81611363565b9050919050565b7f566f74696e67207374696c6c206f70656e000000000000000000000000000000600082015250565b60006113dc601183610d34565b91506113e7826113a6565b602082019050919050565b6000602082019050818103600083015261140b816113cf565b9050919050565b60006020820190506114276000830184610dd4565b92915050565b60008190508160005260206000209050919050565b60006020601f8301049050919050565b600082821b905092915050565b60006008830261148f7fffffffffffffffffffffffffffffffffffffffffffffffffffffffffffffffff82611452565b6114998683611452565b95508019841693508086168417925050509392505050565b6000819050919050565b60006114d66114d16114cc84610b85565b6114b1565b610b85565b9050919050565b6000819050919050565b6114f0836114bb565b6115046114fc826114dd565b84845461145f565b825550505050565b600090565b61151961150c565b6115248184846114e7565b505050565b5b818110156115485761153d600082611511565b60018101905061152a565b5050565b601f82111561158d5761155e8161142d565b61156784611442565b81016020851015611576578190505b61158a61158285611442565b830182611529565b50505b505050565b600082821c905092915050565b60006115b060001984600802611592565b1980831691505092915050565b60006115c9838361159f565b9150826002028217905092915050565b6115e282610d29565b67ffffffffffffffff8111156115fb576115fa610ee9565b5b6116058254611309565b61161082828561154c565b600060209050601f8311600181146116435760008415611631578287015190505b61163b85826115bd565b8655506116a3565b601f1984166116518661142d565b60005b8281101561167957848901518255600182019150602085019450602081019050611654565b868310156116965784890151611692601f89168261159f565b8355505b6001600288020188555050505b505050505050565b600060408201905081810360008301526116c58185610d80565b90506116d46020830184610db9565b939250505056fea264697066735822122082ebed56a5a64af2b8171784deb2164e73f744bb48147fbcb0374f4bb05d509e64736f6c63430008140033",
  "linkReferences": {},
  "deployedLinkReferences": {}
}