{
  "_format": "hh-sol-artifact-1",
  "contractName": "ReportAnchor",
  "sourceName": "contracts/ReportAnchor.sol",
  "abi": [
    {
      "inputs": [],
      "stateMutability": "nonpayable",
      "type": "constructor"
    },
    {
      "inputs": [
        {
          "internalType": "address",
          "name": "owner",
          "type": "address"
        }
      ],
      "name": "OwnableInvalidOwner",
      "type": "error"
    },
    {
      "inputs": [
        {
          "internalType": "address",
          "name": "account",
          "type": "address"
        }
      ],
      "name": "OwnableUnauthorizedAccount",
      "type": "error"
    },
    {
      "anonymous": false,
      "inputs": [
        {
          "indexed": true,
          "internalType": "address",
          "name": "previousOwner",
          "type": "address"
        },
        {
          "indexed": true,
          "internalType": "address",
          "name": "newOwner",
          "type": "address"
        }
      ],
      "name": "OwnershipTransferred",
      "type": "event"
    },
    {
      "anonymous": false,
      "inputs": [
        {
          "indexed": false,
          "internalType": "string",
          "name": "month",
          "type": "string"
        },
        {
          "indexed": false,
          "internalType": "bytes32",
          "name": "pdfHash",
          "type": "bytes32"
        }
      ],
      "name": "ReportAnchored",
      "type": "event"
    },
    {
      "inputs": [
        {
          "internalType": "string",
          "name": "month",
          "type": "string"
        },
        {
          "internalType": "bytes32",
          "name": "pdfHash",
          "type": "bytes32"
        }
      ],
      "name": "anchorReport",
      "outputs": [],
      "stateMutability": "nonpayable",
      "type": "function"
    },
    {
      "inputs": [],
      "name": "owner",
      "outputs": [
        {
          "internalType": "address",
          "name": "",
          "type": "address"
        }
      ],
      "stateMutability": "view",
      "type": "function"
    },
    {
      "inputs": [],
      "name": "renounceOwnership",
      "outputs": [],
      "stateMutability": "nonpayable",
      "type": "function"
    },
    {
      "inputs": [
        {
          "internalType": "string",
          "name": "",
          "type": "string"
        }
      ],
      "name": "reports",
      "outputs": [
        {
          "internalType": "bytes32",
          "name": "",
          "type": "bytes32"
        }
      ],
      "stateMutability": "view",
      "type": "function"
    },
    {
      "inputs": [
        {
          "internalType": "address",
          "name": "newOwner",
          "type": "address"
        }
      ],
      "name": "transferOwnership",
      "outputs": [],
      "stateMutability": "nonpayable",
      "type": "function"
    },
    {
      "inputs": [
        {
          "internalType": "string",
          "name": "month",
          "type": "string"
        },
        {
          "internalType": "bytes32",
          "name": "pdfHash",
          "type": "bytes32"
        }
      ],
      "name": "verifyReport",
      "outputs": [
        {
          "internalType": "bool",
          "name": "",
          "type": "bool"
        }
      ],
      "stateMutability": "view",
      "type": "function"
    }
  ],
  "bytecode": "0x608060405234801561001057600080fd5b5033600073ffffffffffffffffffffffffffffffffffffffff168173ffffffffffffffffffffffffffffffffffffffff16036100845760006040517f1e4fbdf700000000000000000000000000000000000000000000000000000000815260040161007b919061019e565b60405180910390fd5b6100938161009960201b60201c565b506101b9565b60008060009054906101000a900473ffffffffffffffffffffffffffffffffffffffff169050816000806101000a81548173ffffffffffffffffffffffffffffffffffffffff021916908373ffffffffffffffffffffffffffffffffffffffff1602179055508173ffffffffffffffffffffffffffffffffffffffff168173ffffffffffffffffffffffffffffffffffffffff167f8be0079c531659141344cd1fd0a4f28419497f9722a3daafe3b4186f6b6457e060405160405180910390a35050565b600073ffffffffffffffffffffffffffffffffffffffff82169050919050565b60006101888261015d565b9050919050565b6101988161017d565b82525050565b60006020820190506101b3600083018461018f565b92915050565b610880806101c86000396000f3fe608060405234801561001057600080fd5b50600436106100625760003560e01c806364cceaef14610067578063715018a61461009757806376278a20146100a15780638da5cb5b146100d1578063d75d6d24146100ef578063f2fde38b1461010b575b600080fd5b610081600480360381019061007c9190610558565b610127565b60405161008e91906105ba565b60405180910390f35b61009f610155565b005b6100bb60048036038101906100b69190610601565b610169565b6040516100c89190610678565b60405180910390f35b6100d9610194565b6040516100e691906106d4565b60405180910390f35b61010960048036038101906101049190610601565b6101bd565b005b6101256004803603810190610120919061071b565b610225565b005b6001818051602081018201805184825260208301602085012081835280955050505050506000915090505481565b61015d6102ab565b6101676000610332565b565b60008160018460405161017c91906107b9565b90815260200160405180910390205414905092915050565b60008060009054906101000a900473ffffffffffffffffffffffffffffffffffffffff16905090565b6101c56102ab565b806001836040516101d691906107b9565b9081526020016040518091039020819055507fa766983db98845a77ba10cff51414158d579080cdb2bfa0af7e81c128d09080e828260405161021992919061081a565b60405180910390a15050565b61022d6102ab565b600073ffffffffffffffffffffffffffffffffffffffff168173ffffffffffffffffffffffffffffffffffffffff160361029f5760006040517f1e4fbdf700000000000000000000000000000000000000000000000000000000815260040161029691906106d4565b60405180910390fd5b6102a881610332565b50565b6102b36103f6565b73ffffffffffffffffffffffffffffffffffffffff166102d1610194565b73ffffffffffffffffffffffffffffffffffffffff1614610330576102f46103f6565b6040517f118cdaa700000000000000000000000000000000000000000000000000000000815260040161032791906106d4565b60405180910390fd5b565b60008060009054906101000a900473ffffffffffffffffffffffffffffffffffffffff169050816000806101000a81548173ffffffffffffffffffffffffffffffffffffffff021916908373ffffffffffffffffffffffffffffffffffffffff1602179055508173ffffffffffffffffffffffffffffffffffffffff168173ffffffffffffffffffffffffffffffffffffffff167f8be0079c531659141344cd1fd0a4f28419497f9722a3daafe3b4186f6b6457e060405160405180910390a35050565b600033905090565b6000604051905090565b600080fd5b600080fd5b600080fd5b600080fd5b6000601f19601f8301169050919050565b7f4e487b7100000000000000000000000000000000000000000000000000000000600052604160045260246000fd5b6104658261041c565b810181811067ffffffffffffffff821117156104845761048361042d565b5b80604052505050565b60006104976103fe565b90506104a3828261045c565b919050565b600067ffffffffffffffff8211156104c3576104c261042d565b5b6104cc8261041c565b9050602081019050919050565b82818337600083830152505050565b60006104fb6104f6846104a8565b61048d565b90508281526020810184848401111561051757610516610417565b5b6105228482856104d9565b509392505050565b600082601f83011261053f5761053e610412565b5b813561054f8482602086016104e8565b91505092915050565b60006020828403121561056e5761056d610408565b5b600082013567ffffffffffffffff81111561058c5761058b61040d565b5b6105988482850161052a565b91505092915050565b6000819050919050565b6105b4816105a1565b82525050565b60006020820190506105cf60008301846105ab565b92915050565b6105de816105a1565b81146105e957600080fd5b50565b6000813590506105fb816105d5565b92915050565b6000806040838503121561061857610617610408565b5b600083013567ffffffffffffffff8111156106365761063561040d565b5b6106428582860161052a565b9250506020610653858286016105ec565b9150509250929050565b60008115159050919050565b6106728161065d565b82525050565b600060208201905061068d6000830184610669565b92915050565b600073ffffffffffffffffffffffffffffffffffffffff82169050919050565b60006106be82610693565b9050919050565b6106ce816106b3565b82525050565b60006020820190506106e960008301846106c5565b92915050565b6106f8816106b3565b811461070357600080fd5b50565b600081359050610715816106ef565b92915050565b60006020828403121561073157610730610408565b5b600061073f84828501610706565b91505092915050565b600081519050919050565b600081905092915050565b60005b8381101561077c578082015181840152602081019050610761565b60008484015250505050565b600061079382610748565b61079d8185610753565b93506107ad81856020860161075e565b80840191505092915050565b60006107c58284610788565b915081905092915050565b600082825260208201905092915050565b60006107ec82610748565b6107f681856107d0565b935061080681856020860161075e565b61080f8161041c565b840191505092915050565b6000604082019050818103600083015261083481856107e1565b905061084360208301846105ab565b939250505056fea2646970667358221220f5413284883522d771e0cbd17da542db6ed97740985668760245b839b0f457d364736f6c63430008140033",
  "linkReferences": {},
  "deployedLinkReferences": {}
}